:020000040800F2
:1000000080020020890100088D0100088F0100088E
:10001000910100089301000895010008000000000C
:100020000000000000000000000000009701000830
:1000300099010008000000009B0100089D010008D4
:100040009F0100089F0100089F0100089F01000810
:100050009F0100089F0100089F0100089F01000800
:100060009F0100089F0100089F0100089F010008F0
:100070009F0100089F0100089F0100089F010008E0
:100080009F0100089F0100089F0100089F010008D0
:100090009F0100089F0100089F0100089F010008C0
:1000A0009F0100089F0100089F0100089F010008B0
:1000B0009F0100089F0100089F0100089F010008A0
:1000C0009F0100089F0100089F0100089F01000890
:1000D0009F0100089F0100083D0E00089F010008D5
:1000E0009F0100089F0100089F01000800F002F82E
:1000F00000F03AF80AA090E8000C82448344AAF188
:100100000107DA4501D100F02FF8AFF2090EBAE885
:100110000F0013F0010F18BFFB1A43F0010318473B
:100120001010000030100000103A24BF78C878C1C9
:10013000FAD8520724BF30C830C144BF04680C60ED
:10014000704700000023002400250026103A28BF35
:1001500078C1FBD8520728BF30C148BF0B60704739
:100160001FB51FBD10B510BD00F0AAFF1146FFF767
:10017000F7FF00F041FE00F0C8FF03B4FFF7F2FF05
:1001800003BC00F0CDFF000008480047FEE7FEE793
:10019000FEE7FEE7FEE7FEE7FEE7FEE7FEE7FEE737
:1001A00003480449024A044B70470000ED00000870
:1001B0008000002080020020800000200CB500207C
:1001C000019000904748006840F48030454908603D
:1001D00000BF4448006800F4003000900198401CC3
:1001E0000190009818B90198B0F5A06FF1D13D4881
:1001F000006800F4003010B10120009001E0002000
:1002000000900098012844D13748006840F0100061
:10021000354908600846006820F003000860084679
:10022000006840F0020008602E4840682D49486090
:100230000846406848600846406840F4806048606E
:100240000846406820F47C1048600846406840F446
:10025000E81048600846006840F08070086000BF01
:100260002048006800F000700028F9D01D48406860
:1002700020F003001B4948600846406840F0020037
:10028000486000BF1748406800F00C000828F9D10A
:1002900001E000BFFEE70CBD10B5FFF78FFF10BDFA
:1002A00010B51048006840F001000E49086008468B
:1002B00040680E4908400B494860084600680C49F0
:1002C0000840084908600846006820F4802008605B
:1002D0000846406820F4FE00486000208860FFF770
:1002E000DBFF10BD00100240002002400000FFF8BC
:1002F000FFFFF6FE10B50446C649601A8C422FD0A7
:1003000009DCC548204480B1B0F5806F16D0B0F547
:10031000006F4AD11BE0B0F5806F2AD0B0F5006FB6
:1003200030D0B0F5406F40D135E00121042000F01D
:10033000FFFA0021042000F0FBFA37E00121082039
:1003400000F0F6FA0021082000F0F2FA2EE0012178
:10035000102000F0EDFA0021102000F0E9FA25E06D
:100360000121202000F0E4FA0021202000F0E0FA32
:100370001CE00121402000F0DBFA0021402000F0C9
:10038000D7FA13E00121802000F0D2FA002180206A
:1003900000F0CEFA0AE00121080200F0C9FA0021BB
:1003A0004FF4807000F0C4FA00E000BF00BF10BD41
:1003B00010B50121084600F0BBFA0021012000F031
:1003C000B7FA10BD2DE9F0410246002500260020B5
:1003D00000230024002791F803C00CF00F0591F8CA
:1003E00003C00CF0100CBCF1000F03D091F802C058
:1003F0004CEA050591F800C0BCF1000F31D014683B
:1004000000202BE04FF0010C0CFA00F3B1F800C013
:100410000CEA03069E4220D183004FF00F0C0CFA29
:1004200003F7BC4305FA03FC4CEA040491F803C04B
:10043000BCF1280F06D14FF0010C0CFA00FCC2F8F9
:1004400014C00AE091F803C0BCF1480F05D14FF089
:10045000010C0CFA00FCC2F810C0401C0828D1D3D3
:100460001460B1F800C0BCF1FF0F34DD5468002007
:100470002EE000F1080C4FF0010808FA0CF3B1F877
:1004800000C00CEA03069E4221D183004FF00F0CFE
:100490000CFA03F7BC4305FA03FC4CEA040491F898
:1004A00003C0BCF1280F05D100F1080C08FA0CF8C4
:1004B000C2F8148091F803C0BCF1480F07D100F1D5
:1004C000080C4FF0010808FA0CF8C2F81080401C24
:1004D0000828CED35460BDE8F0814FF6FF7101804B
:1004E000022181700421C170704702460020936888
:1004F0000B400BB1012000E00020704701468868E6
:1005000080B2704702460020D3680B400BB1012037
:1005100000E0002070470146C86880B27047016162
:100520007047416170470AB1016100E04161704765
:10053000C16070474FF480320A43826181618261F9
:1005400082698269704702460020344B18684FF672
:100550008073184040EA02100843304B186070471F
:100560002F49C8617047F0B50A46002300240021D6
:1005700000252A4E7168C0F3034583B200F440168B
:10058000B6F5401F08D121F07061244E766826F040
:100590007066224F7E6012E000F48016B6F5801F70
:1005A00006D1032606FA05F4A14341F0706106E086
:1005B000460D360103FA06F6B14341F0706122B1EF
:1005C000460D360103FA06F63143144E7160F0BD54
:1005D00030B500228B071C0F0F2303FA04F20F4BD8
:1005E00008338C1053F8243093430C4C08348D108E
:1005F00044F8253023468C1053F824308C07240F00
:1006000000FA04F42343054C08348D1044F82530D7
:1006100030BD00000014014000F8FEBF00000140A2
:1006200000002042DE48006840F00100DC4908601C
:1006300008464068DB490840D949486008460068D8
:10064000D9490840D64908600846006820F480204F
:1006500008600846406820F4FE004860002088607A
:100660007047CF49096821F48031CD4A11601146A5
:10067000096821F480211160B0F5803F03D0B0F506
:10068000802F0ED106E0C649096841F48031C44A82
:10069000116007E0C249096841F4A021C04A116015
:1006A00000E000BF00BF704710B5014600220023E4
:1006B00000204A11012A02D1B94C236806E0022A1F
:1006C00002D1B74C236A01E0B54C636A01F01F0206
:1006D000012494401C400CB1012000E0002010BD1A
:1006E00038B5002000900024002500BF3120FFF71E
:1006F000DBFF05460098401C00901DB90098B0F53E
:10070000A06FF3D13120FFF7CFFF08B1012400E043
:100710000024204638BD01460020A14A106820F080
:10072000F80040EAC10010607047A04908607047B7
:10073000024600209A4B586820F47C1042EA0103DC
:100740001843974B586070479849086670470146B0
:100750000020934A506820F003000843506070471F
:100760008F48406800F00C007047014600208C4A1A
:10077000506820F0F00008435060704701460020A8
:10078000874A506820F4E060084350607047014693
:100790000020834A506820F4605040EAC100506055
:1007A000704729B17E4A527A02437D4B5A7204E067
:1007B0007B4A527A82437A4B5A7270477B49D831CE
:1007C0000860704701460020754A506820F4404098
:1007D0000843506070470021714A20321170704AFE
:1007E00082F82010012802D004280AD104E0012157
:1007F0006B4A2032117005E00521694A20321170E0
:1008000000E000BF00BF7047694908607047644955
:10081000096A0143624A11627047654944390860B8
:10082000704730B500210022002400235C4D6D6824
:1008300005F00C0121B1042905D0082923D105E0D8
:100840005C4D056022E05B4D05601FE0544D6D6816
:1008500005F47012022505EB9242514D6D6805F4C6
:1008600080341CB9544D554305600BE04C4D6D6808
:1008700005F400351DB1504D5543056002E04D4D66
:100880005543056002E04B4D056000BF00BF444D7D
:100890006D6805F0F0010909484D6B5C0568DD40A5
:1008A00045603F4D6D6805F4E061090A434D6B5C9E
:1008B0004568DD4085603A4D6D6805F46051C90AB0
:1008C0003E4D6B5C4568DD40C560354D6D6805F497
:1008D0004041890B3A4D6B5CC568B5FBF3F505618A
:1008E00030BD29B12E4A526902432D4B5A6104E0B2
:1008F0002B4A526982432A4B5A61704729B1284AD0
:1009000092690243264B9A6104E0254A9269824328
:10091000234B9A61704729B1214AD2690243204B87
:10092000DA6104E01E4AD26982431D4BDA617047E6
:1009300029B11B4AD2680243194BDA6004E0184A15
:10094000D2688243164BDA60704729B1144A1269A3
:100950000243134B1A6104E0114A12698243104B9F
:100960001A61704712494039086070470F49C864DE
:1009700070470B49C87170470948406A40F0807061
:1009800007494862704701460020054A92680A40BC
:100990000AB1012000E000207047014988727047C9
:1009A000001002400000FFF8FFFFF6FE0000424288
:1009B0008004424200127A0000093D00000000203D
:1009C0001000002010B50446D749601A8C422BD085
:1009D00006DCD648204498B1B0F5806F38D119E0D4
:1009E000B0F5806F2AD0B0F56C4F31D1012188036A
:1009F000FFF79EFF00214FF48040FFF799FF28E0AA
:100A000001214804FFF7A1FF00214FF40030FFF758
:100A10009CFF1EE001218804FFF797FF00214FF49F
:100A20008020FFF792FF14E00121C804FFF78DFF3B
:100A300000214FF40020FFF788FF0AE0012108059C
:100A4000FFF783FF00214FF48010FFF77EFF00E0E7
:100A500000BF00BF10BD2DE9F04786B005460E4629
:100A60000024A24600BF00BF00272F462C8A4CF668
:100A7000FF700440F08804432C82AC894EF6F310DA
:100A80000440B08831890843718908430443AC812C
:100A9000AC8A4FF6FF400440B0890443AC8201A801
:100AA000FFF7BFFEA248874202D1DDF810A001E0A7
:100AB000DDF80CA00AEBCA0000EB0A1031688900CF
:100AC000B0FBF1F86420B8FBF0F0040120096421C8
:100AD00001FB1089322000EB0910B0FBF1F000F0AF
:100AE0000F0004432C8106B0BDE8F0874FF4165187
:100AF000016000218180C18001810C2141810021A0
:100B00008181704710B502460020108A4FF2FF0322
:100B100018400B884C8823438C882343CC8823437C
:100B20001843108210BD0021018041808180C18066
:100B3000704721B1828942F40052828104E08289A7
:100B40004DF6FF731A4082817047F0B503460024CA
:100B50000026002500201846C1F3421401F01F06AC
:100B6000012707FA06F5012C01D10C3004E0022C14
:100B700001D1103000E014301AB107682F4307602C
:100B800002E00768AF430760F0BD1AB1838A0B43E8
:100B9000838202E0838A8B4383827047028A4FF606
:100BA000F0731A400282028A0A43028270478289E5
:100BB0004FF2FF731A40828182890A438281704713
:100BC00021B1828942F00202828104E082894FF6DB
:100BD000FD731A4082817047028A4FF6DF731A4014
:100BE0000282028A0A430282704721B1028A42F4D9
:100BF0008042028204E0028A4BF6FF731A400282AE
:100C00007047C1F308028280704701468888C0F3AC
:100C100008007047818941F0010181817047028B92
:100C2000D2B20283028B42EA012202837047028B16
:100C300002F47F420283028B0A430283704721B190
:100C4000828A42F02002828204E0828A4FF6DF73B9
:100C50001A408282704721B1828A42F01002828259
:100C600004E0828A4FF6EF731A408282704721B106
:100C7000828A42F00802828204E0828A4FF6F77389
:100C80001A4082827047828A4FF6FB731A40828232
:100C9000828A0A438282704721B1828A42F002022C
:100CA000828204E0828A4FF6FD731A408282704786
:100CB0000246002013880B400BB1012000E0002009
:100CC0007047CA430280704770B502460B46002445
:100CD000002100250020C3F3421503F01F01012667
:100CE00006FA01F1012D02D19689314006E0022D6C
:100CF00002D1168A314001E0968A31401C12012649
:100D000006FA04F41688344011B10CB1012000E059
:100D1000002070BD10B5002200230A120124944067
:100D2000A3B2DC43048010BD004C004000BCFFBFF8
:100D30000038014010B5FFF7B3FA482000F004F87E
:100D400000F0DFF8012010BD4FF0E021096921F02B
:100D500004014FF0E0221161C21700EB5272C2F39E
:100D6000C702234B1A701946097801EB4102C2EB06
:100D7000C1114FF6FF7202EAC1011E4A118070478D
:100D800001461B4A12784A434FF0E0235A61002281
:100D90009A6101221A6100BF4FF0E022106900F051
:100DA00001021AB100F48032002AF5D000224FF07F
:100DB000E0231A619A61704701460E4A12884A433D
:100DC0004FF0E0235A6100229A6101221A6100BFAC
:100DD0004FF0E022106900F001021AB100F48032F5
:100DE000002AF5D000224FF0E0231A619A61704783
:100DF00014000020160000201FB5002417A30FCBFD
:100E00008DE80F00FFF796FF684600F0DBF814E06E
:100E100000250CE001261548FFF7F7FE044628469A
:100E200000F0FAF8E0B200F0C2F86D1C00BF0F4805
:100E3000FFF7EBFEA042EDD100BFE9E710B540F2AD
:100E400025510A48FFF740FF38B100F0FEF8084985
:100E500008700846007800F0AAF810BD48656C6C70
:100E60006F20576F726C6421000000000044004046
:100E70001800002070B585B002460020002300BF96
:100E80000CE00A24B2FBF4F504FB152430340DF811
:100E90000040441CE0B20A24B2FBF4F2002AF0D174
:100EA0000346002006E01C1A641E1DF804400C5482
:100EB000441CE0B29842F6DB20B930260446451CBB
:100EC000E8B20E5500240C5405B070BD2DE9F04178
:100ED000054600260127284600F0D0F800F0FF085C
:100EE000444609E0601E285C303800FB076607EBCB
:100EF00087004700601EC4B2002CF3DC3046BDE81A
:100F0000F08100B587B001210520FFF7F7FC012132
:100F10004804FFF700FD0420ADF8180003208DF809
:100F20001A0018208DF81B0006A95148FFF74AFA4D
:100F30000820ADF8180048208DF81B0006A94C4881
:100F4000FFF740FA4FF4E13002900020ADF80C00BA
:100F5000ADF80E00ADF81000ADF814000C20ADF89F
:100F600012000020ADF80000ADF802004FF4007050
:100F7000ADF804000020ADF8060069463D48FFF7D3
:100F8000C1FD02A93B48FFF766FD01213948FFF783
:100F9000D0FD07B000BDC2B2364B1B1D1A8000BF8A
:100FA000344A128802F04002002AF9D070473149D1
:100FB000091D088000BF2F49098801F04001002960
:100FC000F9D070470BE010F8011B2A4A121D11805E
:100FD00000BF2849098801F040010029F9D00178B3
:100FE0000029F0D1704700B50D20FFF7E0FF0A207F
:100FF000FFF7DDFF00BD00B5024609E010780A28C2
:1010000002D1FFF7F0FF02E01078FFF7D0FF521C8B
:1010100010780028F2D100BD10B585B004466946AD
:101020002046FFF727FF6846FFF7E5FF05B010BD34
:1010300030B505460C462846FFF7DDFF2046FFF792
:10104000EBFF0DA0FFF7D7FF30BD10B50948FFF744
:10105000DCFDC4B200BF20210648FFF729FE0028AE
:10106000F9D020210348FFF72CFE204610BD0000D8
:1010700000080140004400400A00000010B5431C75
:1010800002E010F8011B71B18107FAD14FF0013273
:1010900002C88C1A8C4314EAC211F9D0C01A0A068D
:1010A00003D0C01E10BDC01A10BD0A0401D0801E9E
:1010B00010BD0902FCD0401E10BD7047704770473C
:1010C000754600F029F8AE4605006946534620F003
:1010D0000700854618B020B5FFF762F8BDE820404C
:1010E0004FF000064FF000074FF000084FF0000BE4
:1010F00021F00701AC46ACE8C009ACE8C009ACE897
:10110000C009ACE8C0098D4670470446AFF30080C3
:101110002046FFF732F80000004870471C0000200E
:1011200001491820ABBEFEE7260002007047000010
:1011300050110008000000201C00000028010008D9
:101140006C1100081C00002064020000440100082B
:10115000000000000102030401020304060708095D
:0C1160000204060800000000000000006F
:04000005080000ED02
:00000001FF
